:1000000099C00000B7C00000B5C00000B3C0000038
:10001000B1C00000AFC00000ADC00000ABC0000028
:10002000A9C00000A7C00000A5C00000A3C0000038
:10003000A1C00000DAC000009DC000009BC000000D
:1000400099C0000097C0000095C0000093C0000058
:1000500091C000008FC000008DC000008BC0000068
:1000600089C0000087C0000085C0000083C0000078
:1000700081C000007FC000007DC000007BC0000088
:1000800079C0000077C0000075C0000073C0000098
:10009000D7C00000B9C000006DC000006BC00000F8
:1000A00069C0000067C000008FC0000063C000008E
:1000B00061C000005FC000005DC000005BC00000C8
:1000C00059C0000057C0000055C0000053C00000D8
:1000D00051C000004FC000004DC000004BC00000E8
:1000E00049C0000047C0000045C0000043C00000F8
:1000F00041C000003FC000003DC000003BC0000008
:1001000039C0000037C0000035C0000033C0000017
:1001100031C000002FC000002DC000002BC0000027
:1001200029C0000027C0000025C0000023C0000037
:1001300021C0000011241FBECFEFD1E8DEBFCDBF2C
:1001400000E00CBF12E0A0E0B2E0EEE5FAE100E072
:100150000BBF02C007900D92AC30B107D9F727E072
:10016000ACE0B2E001C01D92AB38B207E1F771D14B
:100170000C942D0D45CF14BE0FB6F894A895809120
:100180006000886180936000109260000FBEE1E61D
:10019000F0E080E880831082789401C00895109286
:1001A000620780E197E29093A9008093A800E1EABA
:1001B000F0E088E08083808182608083E2E7F0E085
:1001C00080818260808308951F920F920FB60F92F4
:1001D00011248F93809162078F5F809362078F91C4
:1001E0000F900FBE0F901F9018951F920F920FB691
:1001F0000F9211248F9381E080930C028F910F90C6
:100200000FBE0F901F9018951F920F920FB60F926E
:1002100011240BB60F928F93EF93FF9381E080939D
:100220000E02E9ECF0E080818F7D8083FF91EF91F9
:100230008F910F900BBE0F900FBE0F901F901895CF
:100240001F920F920FB60F9211240BB60F922F939D
:100250003F934F935F936F937F938F939F93AF934E
:10026000BF93EF93FF938091C8002091CE008C71D3
:1002700059F5EFE0F2E04681578184819581481776
:10028000590711F14085518582819381BC016F5FCF
:100290007F4F73836283DA01A80FB91F2C932281E9
:1002A0003381848195812817390721F41092120235
:1002B00010921102EFE0F2E0868197810196978318
:1002C000868381E080930D02FF91EF91BF91AF9102
:1002D0009F918F917F916F915F914F913F912F915E
:1002E0000F900BBE0F900FBE0F901F901895E8EC6B
:1002F000F0E0908195FFFDCF8093CE0008958BE1D3
:10030000F6DF8BE5F4DF82E3F2DF8AE4F0CF0895D5
:10031000CF93DF93EC018881882329F02196E7DFD2
:1003200089918111FCCFDF91CF91089584E092E013
:10033000EFCF0895CF92DF92EF92FF92CF93DF93AA
:1003400000D01F92CDB7DEB79C01990F440B550B1F
:1003500060E271EA87E090E00E94940C69017A0102
:10036000CA01B90161507109810991090E94370CD4
:1003700069837A838B839C8381E0C81AD108D092E9
:10038000CD00C092CC00E9ECF0E088E1808386E00B
:100390008093CA00808180688083B1DFC7DF0F90BF
:1003A0000F900F900F90DF91CF91FF90EF90DF9023
:1003B000CF90089508950F931F93CF93DF938C01EF
:1003C000DC0112968D919C911397A2DFF801818533
:1003D000882399F0C0E0D0E0D8011796ED91FC9108
:1003E0001897EC0FFD1F808190E092DF2196F801B5
:1003F000218530E0C217D3077CF388E092E088DFE4
:1004000081E0DF91CF911F910F91089581E090E0FD
:100410004AD087E695E44ED08FE00E945E0A81E0E4
:100420000E945A0A6BED71E081E04BD080E895E2C2
:1004300081DFE9E1F2E084E190E0A0E0B0E08683D2
:100440009783A087B18712868AED91E0948783878E
:10045000089580E895E26EDF0E94300BD7DFC1E09F
:100460000E94370B809126028111FACF80E090E044
:100470004FDFC0932602F4CFE3E6F7E01482158243
:100480001182108217A216A2E9E6F7E089E897E048
:1004900011921192E817F907D9F723D63AD3E9D088
:1004A00040D064C1089590936407809363070C94CF
:1004B000740A089590936607809365070C94620A06
:1004C0000895E82FF0E0EE0FFF1FE759F84F718312
:1004D0006083089565D300D729C00895E09127026D
:1004E000F09128023097D9F02281338128173907FB
:1004F00089F405C0228133812817390759F4DC01BA
:10050000AD57BF4F2C91278713962C91208B22E05B
:10051000248305C00190F081E02D309759F7E6C0A3
:100520000895109228021092270208950F931F93A6
:10053000CF93DF93E0912702F0912802309709F4DE
:1005400093C0EF018C81882321F0823009F466C0CA
:1005500085C096D08C01009721F482E08C838F8730
:1005600083C09B838A8381E08C83F801E957FF4F26
:100570008EE692E0918380833197898582FB88277C
:1005800080F980839985D8011B968C911B9790FBED
:1005900080F91B968C931B97998593FB992790F96B
:1005A00090FB82F91B968C931B97E3E6F7E084811E
:1005B0008F5F84831C968C931C97808191811E96FB
:1005C0009C938E931D978D819E8150969C938E93C4
:1005D0001F978885982F9F7051968C915197807F97
:1005E000892B51968C9351979F819295907F8F7014
:1005F000892B51968C93F801EF57FF4F4C8550E0B3
:100600006A857B85808191810E94050DF801918129
:100610008C85890F8183C80187D526C0CE17DF0757
:1006200041F48881998190932802809327020AC01F
:10063000FC0180819181C817D907D1F78881998100
:1006400091838083E3E6F7E086A197A1019797A3C2
:1006500086A3ED85FE85CE01199506C00990D88147
:10066000C02D209709F06ECFDF91CF911F910F9190
:100670000895109229021092B20210923B0308953D
:1006800080912902882371F08091B202882339F089
:1006900080913B03811127C082E090E005C081E09A
:1006A00090E002C080E090E049E8489F9001499FB7
:1006B000300D1124C901875D9D4FFC0111924A95AF
:1006C000E9F740E1FC014183EF57FF4F255C3D4FC7
:1006D00031832083E3E6F7E026A137A12F5F3F4F68
:1006E00037A326A3089580E090E00895FC011082CE
:1006F000E3E6F7E086A197A1019797A386A3089563
:10070000009741F0FC01E757FF4F83E0E43CF80716
:1007100018F015C0E9E2F2E08081882339F003C0C7
:100720008081882319F08E2F9F2F0895E757FF4F60
:1007300083E0E43CF807A0F380E090E0089580E0D7
:1007400090E00895FC01DC01AD57BF4F1C92A3E679
:10075000B7E014969C9114979F5F14969C931497FE
:1007600094878D919C91968785870895A9ECB3E035
:1007700080E090E04FEF5FEFFD01349751834083BD
:10078000FC01EE0FFF1FEE0FFF1FEE0FFF1FE81B18
:10079000F90BEC53FC4F20812E7F20831C92019695
:1007A00017968436910541F708950F931F93CF93C1
:1007B000DF93E5ECF3E020E030E0062F10E040812D
:1007C000518148175907B1F4D901AA0FBB1FAA0FCD
:1007D000BB1FAA0FBB1FA21BB30BAC53BC4F4C914A
:1007E00046954170C42F40E0D42FC017D10711F4B3
:1007F000CD0108C02F5F3F4F379624363105F9F6FB
:1008000080E090E0DF91CF911F910F910895CF93F9
:10081000DF93E9ECF3E025E836E0C0E0D0E0DF016B
:1008200015978C9180FD0BC08081882369F02097FB
:1008300029F09D81891718F4ED0101C0ED0137966B
:10084000E217F30761F7DE018C918D7080638C9362
:1008500080E815968C931597CD01DF91CF9108957F
:10086000FC01808180FD05C08FEF9FEF9283818323
:10087000158208959ADF009721F0FC01838194810D
:1008800008958FEF9FEF089590DF009709F0E8CF6C
:1008900008950F931F93CF93DF93FC010185128579
:1008A00011232CF48585968508171907E1F58581B4
:1008B00096810196C1F1EF0160E08585968575DF2F
:1008C000FC01892BA1F08F8198850196F9F4209184
:1008D0006307309164078F85988928173907B1F429
:1008E0001483038380818F70806380830AC08FDFCD
:1008F000FC018D859E859283818389859A85948369
:100900008383CD57DF4F888186830DC08381948197
:1009100008171907B1F3DE01AD57BF4F9C918681CF
:100920008917F0F2EECFDF91CF911F910F910895CB
:10093000CF93DF93FC01878590898F3F2FEF92073C
:10094000D9F1EF01638563FB662760F92EDFDC01D7
:10095000892B91F18C9180FD2FC0FE01ED57FF4F47
:100960008081811119C08C918F7080638C93159652
:100970008C9115978F5F15968C938F3FE9F4E9EC76
:10098000F3E025E836E0808186958F5F8083379697
:10099000E217F307C1F710C09C91892F82958F70E1
:1009A000815F8F70282F2295207F9F70922B9C93C0
:1009B000811102C0CD0154DFDF91CF910895CF9313
:1009C000DF93FC01878590898F3F2FEF920729F4F1
:1009D0008FEF9FEF908787830EC0238522FF03C090
:1009E0009087878308C0EF01638563FB662760F902
:1009F00041DF98878F83DF91CF910895AF92BF92A7
:100A0000CF92DF92EF92FF921F93CF93DF93EC018F
:100A10001B8513FB112710F9CF84D888612FC601DD
:100A200029DF019659F0FE01E957FF4F118210822C
:100A3000319782E08083CE0177D322C0AD84BE841B
:100A40001FDE7C010097D1F07DDEF70181818A5F96
:100A50008183E957FF4F11821082F701B08AA78680
:100A6000EF57FF4F0190F081E02D81E08083B2824B
:100A7000A182D482C3821583C70156D3CE0136DE4C
:100A8000DF91CF911F91FF90EF90DF90CF90BF90BB
:100A9000AF900895DC011796ED91FC911897199687
:100AA0008C91863031F4658183819481EDDE81E023
:100AB000089580E00895DC0119962C91199722235E
:100AC00071F01796ED91FC9118972081222319F06F
:100AD000213019F006C0B9C30895DCCF089580E035
:100AE000089580E00895BC01E2E9F6E024EC36E0E8
:100AF00040E051E09081992319F091509083452F67
:100B00003596E217F307B1F7442311F0CB0137C64E
:100B10000895E2E9F6E084EC96E010823596E81755
:100B2000F907D9F7E0E8F6E084E690E0A0E0B0E06D
:100B300086839783A087B187128683E795E09487A1
:100B400083876BE575E080E0BCCC0895CF93DF939D
:100B5000DC01ED91FC91119721812838F1F420817D
:100B60002F7D2134D1F412962C912031B0F0EC017C
:100B700087DD009791F020E2FC0120832A81218308
:100B80002B81ED57FF4F20832C81319620834A81A2
:100B900050E068817981029638D7DF91CF9108952E
:100BA0002F923F924F925F926F927F928F929F927D
:100BB000AF92BF92CF92DF92EF92FF920F931F936B
:100BC000CF93DF93CDB7DEB72E970FB6F894DEBF85
:100BD0000FBECDBF00E010E00F2EF4E2DF2EF02DAF
:100BE0000F2EF3E68F2EF7E09F2EF02D6894CC2485
:100BF000C4F80F2EF2E94F2EF6E05F2EF02D0F2EE7
:100C0000FEE86F2EF6E07F2EF02D0F2EF0ECEF2E8B
:100C1000F6E0FF2EF02D312C212C5801DDC1D5013D
:100C20008C91823209F407C118F4803241F0D4C1AA
:100C3000833209F4CCC1843209F4CCC1CDC1F501B1
:100C4000D0828385982F9A7009F0C6C1258136819C
:100C50002F3F3F4F91F4D5011F968D919C91509756
:100C6000F401208131812817390719F0019609F024
:100C7000B3C1E2E2D501EC93AFC1D5011F962D912E
:100C80003C9150972F3F3F4F11F480FDA5C1F401D7
:100C900020813181D5011D968D919C911E97281739
:100CA000390709F499C1C501F4DDF301432D522D33
:100CB000632D722D5E864D86AD85BE858C91882311
:100CC00009F46CC0D5011D962D913C911E97808131
:100CD00091812817390709F062C0F5019485FA015E
:100CE000EE0FFF1FEE0FFF1FE40FF51FE257F94F46
:100CF0008281891B8830C8F5FA01EE0FFF1FEE0FC5
:100D0000FF1FE40FF51FE257F94F9381292F30E0C1
:100D1000082E02C0359527950A94E2F720FF12C0ED
:100D2000D4012D913C91F5018781908528173907D1
:100D300009F052C1638563FB662760F98785908956
:100D4000A3DD4AC1FA01EE0FFF1FEE0FFF1FE40FF4
:100D5000F51FE257F94F21E030E002C0220F331FA8
:100D60008A95E2F7922B93833EC1FA01EE0FFF1FA3
:100D7000EE0FFF1FE40FF51FE257F94F9283238117
:100D800030E08195A90102C0440F551F8A95E2F712
:100D9000CA01816083838FE1848325C1BF014F5FD6
:100DA0005F4F8D859E8505969E878D873596EE15BE
:100DB000FF0509F081CF6115710509F40DC1D50159
:100DC0001D968D919C911E97FB01918380831C96AB
:100DD0008C91828321E023838FE1848380E896E0F5
:100DE000CED401C1D4012D913C91F5018785908924
:100DF0002817390781F0438542FD0BC0C501E2D1B8
:100E0000D4012D913C91F5018785908928173907E8
:100E100011F0019621F4E2E2D501EC93DDC0D50199
:100E200017968D919C9118972817390709F0D4C00F
:100E300083E28C93D1C010928D06F5012189229511
:100E40002F70E22FF0E0EE0FFF1FE759F84F0190EF
:100E5000F081E02D309709F463C0D5011D968D9186
:100E60009C911E979A8389831F964D915C91509710
:100E70005C834B8351963C9151973F703D832E8309
:100E8000AF57BF4F6D917C917987688795012E5F31
:100E90003F4F261B370BD50111963C911197230F1D
:100EA0002A87AD57BF4F2C912B8711962C912C87F9
:100EB000D5011B962C91622F637022FD02C030E099
:100EC00001C030E2632B23FD02C030E001C030E4FA
:100ED000262F232B4F3F5F4F11F030E001C034E04D
:100EE000232BD50119964D915C911A97841795077C
:100EF00011F090E001C098E0822F892B8F83D501FB
:100F000015962D913C9116972F3F3F4F11F090E091
:100F100001C09C2D892B8F83CE010196199501C0AC
:100F200080E0F501938590FF80E0D50117962D9123
:100F30003C9118972F3F3F4F69F4F4014081518154
:100F4000D5011F962D913C9150974217530711F4EC
:100F500093FF81E0F501258136812F3F3F4FA1F1BD
:100F6000D4012D913C912F3F3F4F71F1882361F1C6
:100F700087DB8C01009741F1E5DBF80181818D5F12
:100F80008183E957FF4F11821082D5011B968C9106
:100F90001B9786958170F801938580FB91F9938763
:100FA0001D968D919C911E97908B8787EF57FF4FD1
:100FB0000190F081E02D108280918D0682831C9635
:100FC0008C918183C801B0D0D501DC9205C0C501E8
:100FD00015DD02C0C5018ADBC50192DB5C01892BEE
:100FE00009F01DCE07C0F50187819085019609F0B3
:100FF00007CFF8CE2E960FB6F894DEBF0FBECDBF4A
:10100000DF91CF911F910F91FF90EF90DF90CF90E4
:10101000BF90AF909F908F907F906F905F904F9018
:101020003F902F900895EF92FF920F931F93CF93CD
:101030007C0110E080E090E001E0C3E113C0FC011E
:101040002081213179F4EC57FF4F208131812150EB
:10105000310931832083232B21F4FC01C083102F1D
:1010600001C0102F4DDB009751F7112311F0C7017C
:1010700086D3CF911F910F91FF90EF900895EF923B
:10108000FF920F931F93CF93DF937C0110E080E0DA
:1010900090E001E0D7E1C0E116C0FC0120812631DB
:1010A00091F4EC57FF4F2081318121503109318378
:1010B0002083232B39F4FC01D083ED57FF4FC083ED
:1010C000102F01C0102F1CDB009739F7112311F0EE
:1010D000C70155D3DF91CF911F910F91FF90EF90F2
:1010E00008951092DB061092DA06EDECF6E082E34A
:1010F00090E0A0E0B0E086839783A087B187128656
:101100008FE398E094878387E0ECF6E08AE090E054
:10111000A0E0B0E086839783A087B187128683E141
:1011200098E0948783870895CF93DF93EC01FC01C7
:10113000EA57FF4F808181FF03C092E1988302C08C
:1011400092E19883FE01ED57FF4F108280FF05C0AA
:101150002FEF3FEF3E832D8306C02091650730912E
:1011600066073E832D83857019F4CE0128DC04C008
:101170008F85988998878F83E3E6F7E08081918156
:101180009A87898785818F5F85838C838F819885F6
:10119000019669F481E498E89B838A8328D4CC572C
:1011A000DF4F8770992701969983888308C081E66D
:1011B00098E89B838A83CC57DF4F19821882DF918E
:1011C000CF9108950F931F93CF93DF938C0158DA3B
:1011D000EC01892BA9F182E18883F801818189835F
:1011E000FE01ED57FF4F108202D4FE01EC57FF4F76
:1011F000877099270196918380833396118210829C
:10120000F801418150E0B8016E5F7F4FCE01029638
:10121000FCD381E498E89B838A838FEF9FEF9887C4
:101220008F83F801858196819E838D83E3E6F7E0C5
:10123000808191819A87898785818F5F85838C835F
:10124000DF91CF911F910F910895CF93DF93FC0110
:10125000C781D08581858330C1F480E090E010C0E3
:10126000FC012081263161F434852981321308C0C4
:1012700027E120832A81EA57FF4F208381E006C0BF
:101280003FDA009769F780E001C080E0DF91CF91FD
:101290000895E091DA06F091DB06813021F048F004
:1012A000823019F004C080E205C081E203C081E011
:1012B00001C080E0DF01AD57BF4F8C9385E1808393
:1012C0001092DB061092DA06E3E6F7E086A197A11A
:1012D000019797A386A308959F92AF92BF92CF9252
:1012E000DF92EF92FF920F931F93CF93DF93C0E0B3
:1012F000D0E00F2EF4E1AF2EF02D03E617E00F2E15
:10130000F7E1DF2EF02D0F2EF6E19F2EF02D0F2EA0
:10131000F5E1EF2EF12CF02D0F2EF3E1CF2EF02D75
:101320000F2EF1E1BF2EF02D60C088818331C1F016
:1013300018F4823139F059C0853149F1873109F407
:1013400045C053C0FE01EC57FF4F80819181892B2E
:1013500029F0B88280EC96E012D247C0C88245C01E
:101360008091DA069091DB06892B09F03EC0D0937C
:10137000DB06C093DA06A8826981CE010296CBD043
:10138000F80186A197A1019697A386A32EC0FE011E
:10139000ED57FF4F8081811117C02D853E85F801E3
:1013A000808191812817390769F48B8580FF0AC0F5
:1013B0009882FE01EC57FF4FF182E0828DEC96E0BF
:1013C000DED113C0D88211C0D8820FC0CE01B0DAEE
:1013D000FE01E957FF4F0190F081E02D309719F49D
:1013E000CE0184D902C0CE011995CE0189D9EC0174
:1013F000892B09F09ACFDF91CF911F910F91FF9028
:10140000EF90DF90CF90BF90AF909F900895809124
:10141000DC06982F9F70E4E5F1E08081807F892BC6
:1014200080838091DC06882329F08091DD068093FB
:10143000530108958091DD06982F9F71E8E4F1E053
:101440008081807E892B8083089593E09093420170
:10145000E1E4F1E090819F719830E1F780934201DF
:10146000E1E4F1E090819F719813FCCF089588E04A
:10147000ECDF8FEF80934F018091DE06882311F01F
:1014800086E1E3CF0895E9E3F1E080818160808324
:101490001092DE061092DC0681E080935F0788E000
:1014A000D4DF8BEE80935601ECE4F1E0808180681C
:1014B000808308958093DE06DACF08958093DD0659
:1014C000A6CF0895CF93DF931F921F92CDB7DEB7BB
:1014D0009A838983809362018A81809363010F904C
:1014E0000F90DF91CF910895CF93DF931F921F92BA
:1014F000CDB7DEB79A838983809360018A81809318
:1015000061019A818981890F80936D010F900F90FD
:10151000DF91CF9108950F931F93CF938C01C62F26
:1015200089E193DF8FEF80934F0182E08C0F8093EE
:101530008001CC2381F0F801C1502C2F30E02F5FC7
:101540003F4FC801820F931FA1E8B1E021912D9375
:10155000E817F907D9F783E080935F0782E080936B
:101560004201CF911F910F9108951F93CF93DF9365
:1015700000D01F921F92CDB7DEB780915F078230F7
:1015800009F465C080914F0183FF3EC0A0917B01AB
:101590006A2F70E0AB014F5F5F4F80E090E020E08A
:1015A000FC01E058FE4F3081FC01E152F94F3083DD
:1015B0002F5F822F90E08417950794F38FED96E0CC
:1015C0009A838983A250AB83FB01E152F94F80815A
:1015D0008C83809147018A558D83CE010196B6DABE
:1015E000E1E4F1E080818F718631E1F7EFE4F1E031
:1015F000808188608083ECE4F1E080818F77808354
:1016000080818068808323C080914F0186FF1FC046
:10161000809141018F718931A9F410914201129595
:101620001695177049F0133021F0153021F013E0B2
:1016300003C011E001C012E01ADF81E080935F0770
:10164000812F27DEEFE4F1E08081806480830F90BA
:101650000F900F900F900F90DF91CF911F910895F1
:101660000E94BB006DD00FDF0C943C0208957DDF1B
:101670000E946A028FC008950F931F93CF93DF9348
:10168000EC018091600790916107009709F445C0D3
:101690004E815F8168857985FC01028113812481F7
:1016A0003581401751076207730760F0DC0117C0EE
:1016B0000281138124813581401751076207730726
:1016C00068F403C0FC01A0E0B0E0041B150B260B7E
:1016D000370B02831383248335830AC0DF01401B49
:1016E000510B620B730BED91FC911197309701F741
:1016F0004A835B836C837D83109741F08D919C912D
:10170000119799838883CD93DC9315C0998388833F
:10171000D0936107C09360070EC0198218828E8132
:101720009F81A885B9858A839B83AC83BD83D09331
:101730006107C0936007DF91CF911F910F910895CA
:1017400010926107109260070895E0916007F09190
:101750006107309771F0E817F90721F40CC08E1774
:101760009F0759F00190F081E02D3097C1F780E09C
:10177000089580E0089581E0089581E00895CF9371
:10178000DF93EC01E2DF811102C0CE0175DFDF9152
:10179000CF910895CF92DF92EF92FF92CF93DF9394
:1017A00080916207882309F459C08FB7F894C090DC
:1017B0006207109262078FBFD12CE12CF12CCC0C68
:1017C000DD1CEE1CFF1CD701C601880F991FAA1F44
:1017D000BB1F880F991FAA1FBB1FC80ED91EEA1E68
:1017E000FB1EC0916007D09161072097B9F18A81F3
:1017F0009B81AC81BD81C816D906EA06FB0610F1B3
:10180000C81AD90AEA0AFB0A88819981909361076C
:10181000809360078A85813011F4CE012DDFEB853E
:10182000FC85CE011995C0916007D0916107209782
:10183000A9F08A819B81AC81BD81C816D906EA06D0
:10184000FB06F0F68A819B81AC81BD818C199D09D4
:10185000AE09BF098A839B83AC83BD83DF91CF919F
:10186000FF90EF90DF90CF900895E89409C097FB28
:101870003EF490958095709561957F4F8F4F9F4F67
:101880009923A9F0F92F96E9BB279395F6958795AB
:1018900077956795B795F111F8CFFAF4BB0F11F46E
:1018A00060FF1BC06F5F7F4F8F4F9F4F16C0882315
:1018B00011F096E911C0772321F09EE8872F762F4B
:1018C00005C0662371F096E8862F70E060E02AF08C
:1018D0009A95660F771F881FDAF7880F9695879578
:1018E00097F90895A1E21A2EAA1BBB1BFD010DC09A
:1018F000AA1FBB1FEE1FFF1FA217B307E407F507C0
:1019000020F0A21BB30BE40BF50B661F771F881F9B
:10191000991F1A9469F760957095809590959B0131
:10192000AC01BD01CF010895052E97FB16F400947C
:101930000FD057FD05D0D6DF07FC02D046F408C013
:1019400050954095309521953F4F4F4F5F4F0895EB
:1019500090958095709561957F4F8F4F9F4F08951B
:101960008F929F92AF92BF92CF92DF92EF92FF92AF
:10197000CF93DF93EC01688179818A819B81611526
:1019800071058105910521F464E279ED8BE597E01D
:101990002DE133EF41E050E0C7DF49015A019B01DF
:1019A000AC01A7EAB1E43AD06B017C01ACEEB4EF34
:1019B000A50194013FD0DC01CB018C0D9D1DAE1D16
:1019C000BF1DB7FF03C00197A109B0488883998361
:1019D000AA83BB839F77DF91CF91FF90EF90DF9039
:1019E000CF90BF90AF909F908F900895B9CF80E037
:1019F00092E0B6CFA0E0B0E08093000290930102A5
:101A0000A0930202B09303020895FB01DC0102C01F
:101A100001900D9241505040D8F708950FD0A59FE6
:101A2000900DB49F900DA49F800D911D11240895D9
:101A3000B7FFF4CFF3DF821B930B0895A29FB00191
:101A4000B39FC001A39F700D811D1124911DB29FF2
:0E1A5000700D811D1124911D0895F894FFCF93
:0C1A5E00010000001B5B48006D0D0A0039
:00000001FF
