S00D00004272616E612E7372656333
S113000099C00000B7C00000B5C00000B3C0000034
S1130010B1C00000AFC00000ADC00000ABC0000024
S1130020A9C00000A7C00000A5C00000A3C0000034
S1130030A1C00000DAC000009DC000009BC0000009
S113004099C0000097C0000095C0000093C0000054
S113005091C000008FC000008DC000008BC0000064
S113006089C0000087C0000085C0000083C0000074
S113007081C000007FC000007DC000007BC0000084
S113008079C0000077C0000075C0000073C0000094
S1130090D7C00000B9C000006DC000006BC00000F4
S11300A069C0000067C000008FC0000063C000008A
S11300B061C000005FC000005DC000005BC00000C4
S11300C059C0000057C0000055C0000053C00000D4
S11300D051C000004FC000004DC000004BC00000E4
S11300E049C0000047C0000045C0000043C00000F4
S11300F041C000003FC000003DC000003BC0000004
S113010039C0000037C0000035C0000033C0000013
S113011031C000002FC000002DC000002BC0000023
S113012029C0000027C0000025C0000023C0000033
S113013021C0000011241FBECFEFD1E8DEBFCDBF28
S113014000E00CBF12E0A0E0B2E0E8ECF7E100E070
S11301500BBF02C007900D92A430B107D9F727E076
S1130160A4E0B2E001C01D92A537B207E1F7C6D002
S11301700C94E20B45CF14BE0FB6F894A895809169
S11301806000886180936000109260000FBEE1E619
S1130190F0E080E880831082789401C00895109282
S11301A04C0780E197E29093A9008093A800E1EACC
S11301B0F0E088E08083808182608083E2E7F0E081
S11301C080818260808308951F920F920FB60F92F0
S11301D011248F9380914C078F5F80934C078F91EC
S11301E00F900FBE0F901F9018951F920F920FB68D
S11301F00F9211248F9381E0809304028F910F90CA
S11302000FBE0F901F9018951F920F920FB60F926A
S113021011240BB60F928F93EF93FF9381E0809399
S11302200602E9ECF0E080818F7D8083FF91EF91FD
S11302308F910F900BBE0F900FBE0F901F901895CB
S11302401F920F920FB60F9211240BB60F922F9399
S11302503F934F935F936F937F938F939F93AF934A
S1130260BF93EF93FF938091C8002091CE008C71CF
S113027059F5E7E0F2E0468157818481958148177A
S1130280590711F14085518582819381BC016F5FCB
S11302907F4F73836283DA01A80FB91F2C932281E5
S11302A03381848195812817390721F410920A0239
S11302B010920902E7E0F2E0868197810196978324
S11302C0868381E080930502FF91EF91BF91AF9106
S11302D09F918F917F916F915F914F913F912F915A
S11302E00F900BBE0F900FBE0F901F90189581E0DA
S11302F0089567E771E081E025C008950E94220A0D
S1130300C1E00E94290A809111028111FACFF1DF24
S1130310C0931102F6CFEDE4F7E014821582118246
S1130320108217A216A2E3E5F7E083E797E01192A3
S11303301192E817F907D9F715D62CD3DBD032D0B0
S113034056C10895E82FF0E0EE0FFF1FED5AF84F65
S113035071836083089565D300D729C00895E0911F
S11303601202F09113023097D9F0228133812817B9
S1130370390789F405C0228133812817390759F4D4
S1130380DC01AD57BF4F2C91278713962C91208BFE
S113039022E0248305C00190F081E02D309759F7C5
S11303A0E6C00895109213021092120208950F935A
S11303B01F93CF93DF93E0911202F09113023097D1
S11303C009F493C0EF018C81882321F0823009F471
S11303D066C085C096D08C01009721F482E08C839E
S11303E08F8783C09B838A8381E08C83F801E957DC
S11303F0FF4F8FEA91E0918380833197898582FB57
S1130400882780F980839985D8011B968C911B9746
S113041090FB80F91B968C931B97998593FB9927E6
S113042090F990FB82F91B968C931B97EDE4F7E00F
S113043084818F5F84831C968C931C978081918127
S11304401E969C938E931D978D819E8150969C93AE
S11304508E931F978885982F9F7051968C915197F2
S1130460807F892B51968C9351979F819295907F91
S11304708F70892B51968C93F801EF57FF4F4C8561
S113048050E06A857B85808191810E94BA0BF801D6
S113049091818C85890F8183C80187D526C0CE17A9
S11304A0DF0741F4888199819093130280931202AB
S11304B00AC0FC0180819181C817D907D1F78881CE
S11304C0998191838083EDE4F7E086A197A1019758
S11304D097A386A3ED85FE85CE01199506C00990E4
S11304E0D881C02D209709F06ECFDF91CF911F9155
S11304F00F9108951092140210929D0210922603F7
S1130500089580911402882371F080919D028823BC
S113051039F080912603811127C082E090E005C064
S113052081E090E002C080E090E049E8489F9001BB
S1130530499F300D1124C9018C5E9D4FFC0111921D
S11305404A95E9F740E1FC014183EF57FF4F2A5DEB
S11305503D4F31832083EDE4F7E026A137A12F5FDF
S11305603F4F37A326A3089580E090E00895FC014F
S11305701082EDE4F7E086A197A1019797A386A3E3
S11305800895009741F0FC01E757FF4F83E0EF3AED
S1130590F80718F015C0E4E1F2E08081882339F00F
S11305A003C08081882319F08E2F9F2F0895E75769
S11305B0FF4F83E0EF3AF807A0F380E090E008955E
S11305C080E090E00895FC01DC01AD57BF4F1C9220
S11305D0ADE4B7E014969C9114979F5F14969C9396
S11305E0149794878D919C91968785870895A4EBA1
S11305F0B3E080E090E04FEF5FEFFD01349751836B
S11306004083FC01EE0FFF1FEE0FFF1FEE0FFF1FD5
S1130610E81BF90BE155FC4F20812E7F20831C92AF
S1130620019617968436910541F708950F931F9309
S1130630CF93DF93E0EBF3E020E030E0062F10E00F
S11306404081518148175907B1F4D901AA0FBB1F42
S1130650AA0FBB1FAA0FBB1FA21BB30BA155BC4FF4
S11306604C9146954170C42F40E0D42FC017D10758
S113067011F4CD0108C02F5F3F4F37962436310562
S1130680F9F680E090E0DF91CF911F910F910895EA
S1130690CF93DF93E4EBF3E020E736E0C0E0D0E073
S11306A0DF0115978C9180FD0BC08081882369F050
S11306B0209729F09D81891718F4ED0101C0ED01FF
S11306C03796E217F30761F7DE018C918D70806332
S11306D08C9380E815968C931597CD01DF91CF917B
S11306E00895FC01808180FD05C08FEF9FEF928308
S11306F08183158208959ADF009721F0FC0183819C
S1130700948108958FEF9FEF089590DF009709F08B
S1130710E8CF08950F931F93CF93DF93FC010185D6
S1130720128511232CF48585968508171907E1F5A0
S1130730858196810196C1F1EF0160E085859685FA
S113074075DFFC01892BA1F08F8198850196F9F45E
S113075020914D0730914E078F85988928173907C6
S1130760B1F41483038380818F70806380830AC013
S11307708FDFFC018D859E859283818389859A858F
S113078094838383CD57DF4F888186830DC0838113
S1130790948108171907B1F3DE01AD57BF4F9C913F
S11307A086818917F0F2EECFDF91CF911F910F91DF
S11307B00895CF93DF93FC01878590898F3F2FEFB6
S11307C09207D9F1EF01638563FB662760F92EDF99
S11307D0DC01892B91F18C9180FD2FC0FE01ED5736
S11307E0FF4F8081811119C08C918F7080638C932D
S11307F015968C9115978F5F15968C938F3FE9F41E
S1130800E4EBF3E020E736E0808186958F5F808318
S11308103796E217F307C1F710C09C91892F829590
S11308208F70815F8F70282F2295207F9F70922B6D
S11308309C93811102C0CD0154DFDF91CF910895C3
S1130840CF93DF93FC01878590898F3F2FEF920729
S113085029F48FEF9FEF908787830EC0238522FFB3
S113086003C09087878308C0EF01638563FB662715
S113087060F941DF98878F83DF91CF910895AF921C
S1130880BF92CF92DF92EF92FF921F93CF93DF93A9
S1130890EC011B8513FB112710F9CF84D888612F35
S11308A0C60129DF019659F0FE01E957FF4F118275
S11308B01082319782E08083CE0177D322C0AD8449
S11308C0BE841FDE7C010097D1F07DDEF7018181BB
S11308D08A5F8183E957FF4F11821082F701B08A42
S11308E0A786EF57FF4F0190F081E02D81E08083D0
S11308F0B282A182D482C3821583C70156D3CE01AA
S113090036DEDF91CF911F91FF90EF90DF90CF9073
S1130910BF90AF900895DC011796ED91FC91189764
S113092019968C91863031F4658183819481EDDE52
S113093081E0089580E00895DC0119962C911997BF
S1130940222371F01796ED91FC91189720812223B0
S113095019F0213019F006C0B9C30895DCCF089509
S113096080E0089580E00895BC01EDE7F6E02FEA09
S113097036E040E051E09081992319F09150908342
S1130980452F3596E217F307B1F7442311F0CB0155
S1130990E8C50895EDE7F6E08FEA96E01082359613
S11309A0E817F907D9F7EBE6F6E084E690E0A0E073
S11309B0B0E086839783A087B187128684EB94E0A6
S11309C0948783876CE974E080E0BCCC0895CF936E
S11309D0DF93DC01ED91FC91119721812838F1F42A
S11309E020812F7D2134D1F412962C912031B0F046
S11309F0EC0187DD009791F020E2FC0120832A813D
S1130A0021832B81ED57FF4F20832C813196208346
S1130A104A8150E0688179810296ACD6DF91CF910A
S1130A2008952F923F924F925F926F927F928F928E
S1130A309F92AF92BF92CF92DF92EF92FF920F9369
S1130A401F93CF93DF93CDB7DEB72E970FB6F894ED
S1130A50DEBF0FBECDBF00E010E00F2EF4E2DF2EAC
S1130A60F02D0F2EFDE48F2EF7E09F2EF02D6894CD
S1130A70CC24C4F80F2EFDE74F2EF6E05F2EF02DA8
S1130A800F2EF9E76F2EF6E07F2EF02D0F2EFBEAE6
S1130A90EF2EF6E0FF2EF02D312C212C5801DDC174
S1130AA0D5018C91823209F407C118F4803241F0E7
S1130AB0D4C1833209F4CCC1843209F4CCC1CDC190
S1130AC0F501D0828385982F9A7009F0C6C12581DB
S1130AD036812F3F3F4F91F4D5011F968D919C9104
S1130AE05097F401208131812817390719F00196B4
S1130AF009F0B3C1E2E2D501EC93AFC1D5011F9671
S1130B002D913C9150972F3F3F4F11F480FDA5C18B
S1130B10F40120813181D5011D968D919C911E9700
S1130B202817390709F499C1C501F4DDF301432DF0
S1130B30522D632D722D5E864D86AD85BE858C91BA
S1130B40882309F46CC0D5011D962D913C911E9704
S1130B50808191812817390709F062C0F5019485D5
S1130B60FA01EE0FFF1FEE0FFF1FE40FF51FE7580A
S1130B70F94F8281891B8830C8F5FA01EE0FFF1FF7
S1130B80EE0FFF1FE40FF51FE758F94F9381292F4C
S1130B9030E0082E02C0359527950A94E2F720FF2D
S1130BA012C0D4012D913C91F501878190852817BD
S1130BB0390709F052C1638563FB662760F98785AD
S1130BC09089A3DD4AC1FA01EE0FFF1FEE0FFF1F4C
S1130BD0E40FF51FE758F94F21E030E002C0220F7F
S1130BE0331F8A95E2F7922B93833EC1FA01EE0FED
S1130BF0FF1FEE0FFF1FE40FF51FE758F94F928315
S1130C00238130E08195A90102C0440F551F8A95C4
S1130C10E2F7CA01816083838FE1848325C1BF0128
S1130C204F5F5F4F8D859E8505969E878D87359690
S1130C30EE15FF0509F081CF6115710509F40DC1A9
S1130C40D5011D968D919C911E97FB019183808304
S1130C501C968C91828321E023838FE184838BE62D
S1130C6096E07FD401C1D4012D913C91F501878593
S1130C7090892817390781F0438542FD0BC0C501CF
S1130C80E2D1D4012D913C91F501878590892817F3
S1130C90390711F0019621F4E2E2D501EC93DDC0AD
S1130CA0D50117968D919C9118972817390709F04B
S1130CB0D4C083E28C93D1C010927806F5012189C7
S1130CC022952F70E22FF0E0EE0FFF1FED5AF84F40
S1130CD00190F081E02D309709F463C0D5011D9691
S1130CE08D919C911E979A8389831F964D915C9157
S1130CF050975C834B8351963C9151973F703D8351
S1130D002E83AF57BF4F6D917C917987688795018A
S1130D102E5F3F4F261B370BD50111963C9111973F
S1130D20230F2A87AD57BF4F2C912B8711962C91F7
S1130D302C87D5011B962C91622F637022FD02C073
S1130D4030E001C030E2632B23FD02C030E001C07B
S1130D5030E4262F232B4F3F5F4F11F030E001C0CA
S1130D6034E0232BD50119964D915C911A97841781
S1130D70950711F090E001C098E0822F892B8F83B2
S1130D80D50115962D913C9116972F3F3F4F11F0A9
S1130D9090E001C09C2D892B8F83CE01019619957B
S1130DA001C080E0F501938590FF80E0D50117969E
S1130DB02D913C9118972F3F3F4F69F4F4014081E6
S1130DC05181D5011F962D913C915097421753079D
S1130DD011F493FF81E0F501258136812F3F3F4FC8
S1130DE0A1F1D4012D913C912F3F3F4F71F1882304
S1130DF061F187DB8C01009741F1E5DBF80181812A
S1130E008D5F8183E957FF4F11821082D5011B96B4
S1130E108C911B9786958170F801938580FB91F9DD
S1130E2093871D968D919C911E97908B8787EF5782
S1130E30FF4F0190F081E02D10828091780682832B
S1130E401C968C918183C801B0D0D501DC9205C079
S1130E50C50115DD02C0C5018ADBC50192DB5C0159
S1130E60892B09F01DCE07C0F50187819085019675
S1130E7009F007CFF8CE2E960FB6F894DEBF0FBE5A
S1130E80CDBFDF91CF911F910F91FF90EF90DF9035
S1130E90CF90BF90AF909F908F907F906F905F9016
S1130EA04F903F902F900895EF92FF920F931F93CE
S1130EB0CF937C0110E080E090E001E0C3E113C037
S1130EC0FC012081213179F4EC57FF4F20813181DD
S1130ED02150310931832083232B21F4FC01C08369
S1130EE0102F01C0102F4DDB009751F7112311F083
S1130EF0C70137D3CF911F910F91FF90EF900895C1
S1130F00EF92FF920F931F93CF93DF937C0110E036
S1130F1080E090E001E0D7E1C0E116C0FC0120814F
S1130F20263191F4EC57FF4F208131812150310952
S1130F3031832083232B39F4FC01D083ED57FF4FF9
S1130F40C083102F01C0102F1CDB009739F7112329
S1130F5011F0C70106D3DF91CF911F910F91FF903C
S1130F60EF9008951092C6061092C506E8EBF6E0DD
S1130F7082E390E0A0E0B0E086839783A087B18706
S1130F80128680E897E094878387EBEAF6E08AE0AC
S1130F9090E0A0E0B0E086839783A087B1871286B3
S1130FA084E597E0948783870895CF93DF93EC01DA
S1130FB0FC01EA57FF4F808181FF03C092E19883CF
S1130FC002C092E19883FE01ED57FF4F108280FF2B
S1130FD005C02FEF3FEF3E832D8306C020914F07BE
S1130FE0309150073E832D83857019F4CE0128DC9F
S1130FF004C08F85988998878F83EDE4F7E080811A
S113100091819A87898785818F5F85838C838F817E
S11310109885019669F481E498E89B838A839CD33C
S1131020CC57DF4F8770992701969983888308C02E
S113103081E698E89B838A83CC57DF4F1982188214
S1131040DF91CF9108950F931F93CF93DF938C017A
S113105058DAEC01892BA9F182E18883F8018181B6
S11310608983FE01ED57FF4F108276D3FE01EC57C2
S1131070FF4F87709927019691838083339611825D
S11310801082F801418150E0B8016E5F7F4FCE01BC
S1131090029670D381E498E89B838A838FEF9FEF55
S11310A098878F83F801858196819E838D83EDE4F3
S11310B0F7E0808191819A87898785818F5F858315
S11310C08C83DF91CF911F910F910895CF93DF937C
S11310D0FC01C781D08581858330C1F480E090E034
S11310E010C0FC012081263161F43485298132133A
S11310F008C027E120832A81EA57FF4F208381E03B
S113110006C03FDA009769F780E001C080E0DF9114
S1131110CF910895E091C506F091C606813021F083
S113112048F0823019F004C080E205C081E203C0B7
S113113081E001C080E0DF01AD57BF4F8C9385E1B2
S113114080831092C6061092C506EDE4F7E086A1EE
S113115097A1019797A386A308959F92AF92BF92F8
S1131160CF92DF92EF92FF920F931F93CF93DF936F
S1131170C0E0D0E00F2EF4E1AF2EF02D0DE417E027
S11311800F2EF7E1DF2EF02D0F2EF6E19F2EF02D1E
S11311900F2EF5E1EF2EF12CF02D0F2EF3E1CF2ED3
S11311A0F02D0F2EF1E1BF2EF02D60C08881833128
S11311B0C1F018F4823139F059C0853149F18731D1
S11311C009F445C053C0FE01EC57FF4F8081918163
S11311D0892B29F0B8828BEA96E0C3D147C0C88234
S11311E045C08091C5069091C606892B09F03EC082
S11311F0D093C606C093C506A8826981CE01029623
S11312007CD0F80186A197A1019697A386A32EC04E
S1131210FE01ED57FF4F8081811117C02D853E855A
S1131220F801808191812817390769F48B8580FF43
S11312300AC09882FE01EC57FF4FF182E08288EBEE
S113124096E08FD113C0D88211C0D8820FC0CE01CE
S1131250B0DAFE01E957FF4F0190F081E02D30979D
S113126019F4CE0184D902C0CE011995CE0189D9D1
S1131270EC01892B09F09ACFDF91CF911F910F9147
S1131280FF90EF90DF90CF90BF90AF909F90089524
S113129093E090934201E1E4F1E090819F719830F2
S11312A0E1F780934201E1E4F1E090819F719813AA
S11312B0FCCF089588E0ECDF8FEF80934F0180919D
S11312C0C806882311F086E1E3CF0895E9E3F1E04D
S11312D08081816080831092C8061092C70681E0E5
S11312E08093490788E0D4DF8BEE80935601ECE4C9
S11312F0F1E080818068808308950F931F93CF93DA
S11313008C01C62F89E1C4DF8FEF80934F0182E007
S11313108C0F80938001CC2381F0F801C1502C2FD5
S113132030E02F5F3F4FC801820F931FA1E8B1E067
S113133021912D93E817F907D9F783E080934907A2
S113134082E080934201CF911F910F9108951F93E2
S1131350CF93DF9300D01F921F92CDB7DEB7809159
S11313604907823009F465C080914F0183FF3EC074
S1131370A0917B016A2F70E0AB014F5F5F4F80E06B
S113138090E020E0FC01E058FE4F3081FC01E7537F
S1131390F94F30832F5F822F90E08417950794F3E1
S11313A089EC96E09A838983A250AB83FB01E753CF
S11313B0F94F80818C83809147018A558D83CE01BA
S11313C0019605DBE1E4F1E080818F718631E1F77C
S11313D0EFE4F1E0808188608083ECE4F1E08081D7
S11313E08F77808380818068808323C080914F01C0
S11313F086FF1FC0809141018F718931A9F410913A
S1131400420112951695177049F0133021F01530EA
S113141021F013E003C011E001C012E04BDF81E0D2
S113142080934907812F76DEEFE4F1E080818064C8
S113143080830F900F900F900F900F90DF91CF91BA
S11314401F9108950E94BB006DD040DF0C948B0166
S113145008957DDF0E94AB018FC008950F931F9301
S1131460CF93DF93EC0180914A0790914B0700974B
S113147009F445C04E815F8168857985FC0102814C
S1131480138124813581401751076207730760F087
S1131490DC0117C002811381248135814017510773
S11314A06207730768F403C0FC01A0E0B0E0041B0A
S11314B0150B260B370B02831383248335830AC051
S11314C0DF01401B510B620B730BED91FC911197E3
S11314D0309701F74A835B836C837D83109741F0D7
S11314E08D919C91119799838883CD93DC9315C03A
S11314F099838883D0934B07C0934A070EC01982FF
S113150018828E819F81A885B9858A839B83AC8349
S1131510BD83D0934B07C0934A07DF91CF911F91AE
S11315200F91089510924B0710924A070895E09185
S11315304A07F0914B07309771F0E817F90721F447
S11315400CC08E179F0759F00190F081E02D309761
S1131550C1F780E0089580E0089581E0089581E076
S11315600895CF93DF93EC01E2DF811102C0CE0135
S113157075DFDF91CF910895CF92DF92EF92FF92C2
S1131580CF93DF9380914C07882309F459C08FB718
S1131590F894C0904C0710924C078FBFD12CE12CCB
S11315A0F12CCC0CDD1CEE1CFF1CD701C601880FEE
S11315B0991FAA1FBB1F880F991FAA1FBB1FC80E04
S11315C0D91EEA1EFB1EC0914A07D0914B072097F3
S11315D0B9F18A819B81AC81BD81C816D906EA061E
S11315E0FB0610F1C81AD90AEA0AFB0A8881998114
S11315F090934B0780934A078A85813011F4CE017A
S11316002DDFEB85FC85CE011995C0914A07D09159
S11316104B072097A9F08A819B81AC81BD81C816B4
S1131620D906EA06FB06F0F68A819B81AC81BD816E
S11316308C199D09AE09BF098A839B83AC83BD8342
S1131640DF91CF91FF90EF90DF90CF900895A1E2CA
S11316501A2EAA1BBB1BFD010DC0AA1FBB1FEE1F28
S1131660FF1FA217B307E407F50720F0A21BB30B73
S1131670E40BF50B661F771F881F991F1A9469F7EF
S113168060957095809590959B01AC01BD01CF014B
S11316900895052E97FB16F400940FD057FD05D03E
S11316A0D6DF07FC02D046F408C05095409530952B
S11316B021953F4F4F4F5F4F0895909580957095BA
S11316C061957F4F8F4F9F4F08958F929F92AF9256
S11316D0BF92CF92DF92EF92FF92CF93DF93EC0110
S11316E0688179818A819B816115710581059105E4
S11316F021F464E279ED8BE597E02DE133EF41E0ED
S113170050E0C7DF49015A019B01AC01A7EAB1E4EB
S11317103AD06B017C01ACEEB4EFA50194013FD04B
S1131720DC01CB018C0D9D1DAE1DBF1DB7FF03C099
S11317300197A109B04888839983AA83BB839F77C3
S1131740DF91CF91FF90EF90DF90CF90BF90AF905B
S11317509F908F900895B9CF80E092E0B6CFA0E03B
S1131760B0E08093000290930102A0930202B09330
S113177003020895FB01DC0102C001900D92415067
S11317805040D8F708950FD0A59F900DB49F900DA9
S1131790A49F800D911D11240895B7FFF4CFF3DFAA
S11317A0821B930B0895A29FB001B39FC001A39F16
S11317B0700D811D1124911DB29F700D811D112486
S10B17C0911D0895F894FFCF78
S10717C80100000018
S9030000FC
